:0A00000014C0FECFFDCFFCCFFBCFF4
:10000A00FACFF9CFF8CFF7CFF6CFF5CFF4CFF3CFBA
:10001A00F2CFF1CFF0CFEFCFEECFEDCFECCFEBCFEA
:10002A00F894EE27ECBBF1E0FBBFEBBFE5BF8DE038
:10003A00A2E0BB27ED938A95E9F780E092E0A0E67B
:10004A00ED930197E9F7EFE5EDBFE2E0EEBFC0EE11
:10005A00D0E00FC01A931A2FE12FE066E7B98DE0BE
:10006A008A95F1F7369A349BFECF349AE5B1199105
:10007A000895E0E0EABBEBBBE7BBE8BBE4BBE5BB4A
:10008A00EFEFE1BBE0E0E2BBE3BFE2BFECBFE1E2DE
:10009A00EFBDE4E0EEBDE0E0EDBDECBDE7BDE6BDE1
:1000AA00EBBDEABDE9BDE8BDE2BDE5BDE4BDE3BD2A
:1000BA00E9BFE5BFE4BFEAB9E0E8E8B9E0E6E7B9D5
:1000CA00E7EAE6B9E0E1E0BFE0E0EDB9E6BFA0E0CB
:1000DA00C1DFF0E0F9BDE8BD909A9198F8CFFFCF63
:00000001FF
